:020000040000FA
:060000000A128A11122809
:10000800FE00030E83120313D8000408D9000A085F
:10001800DA007F08DB000A168A11F82A0A128A1108
:10002800152883135C30840067300A168A117B22F6
:100038000A128A11A0308400B4300A168A117B2271
:100048000A128A1183010A168A11802C2A28FF00B5
:1000580000308A007F08820730280A128A11952BFF
:100068008312031323088039FF007F08AD0023089B
:10007800A8002807FF007F08B300A21F44284528CE
:1000880046283314330803194A284B285A28330AB8
:10009800031D4F28502858280030A3000030A20024
:1000A8000030A1000030A000A21762280030A30091
:1000B8000030A2000030A1000030A00027088039DD
:1000C800FF007F08AD062708A8002807FF007F0863
:1000D800B200A61F7028712872283214320803193A
:1000E800762877288628320A031D7B287C288428CE
:1000F8000030A7000030A6000030A5000030A400A2
:10010800A6178E280030A7000030A6000030A500F2
:100118000030A4003208031992289328982833083D
:10012800031D97289828A1280030A3000030A200BA
:100138000030A1000030A000942B2008FF007F08A9
:10014800F00026080A168A11C8230A128A117108B3
:1001580083120313B9007008B8003808A800A90171
:10016800AA01AB012B08B1002A08B0002908AF008A
:100178002808AE003908A800A901AA01AB012B087C
:10018800B7002A08B6002908B5002808B4002108D5
:10019800FF007F08F00025080A168A11C8230A12F2
:1001A8008A11710883120313B9007008B80038085F
:1001B800A800A901AA01AB012808AE072908031164
:1001C8000318013E0319E928AF072A080311031889
:1001D800013E0319F028B0072B0803110318013E4C
:1001E8000319F728B1073908A800A901AA01AB012A
:1001F8002808B407290803110318013E0319052923
:10020800B5072A0803110318013E03190C29B6077C
:100218002B0803110318013E03191329B7072208F5
:10022800FF007F08F00024080A168A11C8230A1262
:100238008A11710883120313B9007008B8003808CE
:10024800A800A901AA01AB012808AE0729080311D3
:100258000318013E03193129AF072A0803110318AF
:10026800013E03193829B0072B0803110318013E72
:1002780003193F29B1073908A800A901AA01AB0150
:100288002808B407290803110318013E03194D294A
:10029800B5072A0803110318013E03195429B607A4
:1002A8002B0803110318013E03195B29B70708300F
:1002B800A8000310AE0DAF0DB00DB10DA80B5D2950
:1002C8002108FF007F08F00024080A168A11C823B5
:1002D8000A128A11710883120313B9007008B80052
:1002E8003808A8003908A900AA01AB012808AE07F8
:1002F800290803110318013E03198329AF072A08A7
:1003080003110318013E03198A29B0072B080311AA
:100318000318013E03199129B1072008FF007F083F
:10032800F00025080A168A11C8230A128A117108D2
:1003380083120313B9007008B8003808A8003908F8
:10034800A900AA01AB012808AE0729080311031860
:10035800013E0319B029AF072A0803110318013E0B
:100368000319B729B0072B0803110318013E031915
:10037800BE29B1070830A8000310AE0DAF0DB00DAF
:10038800B10DA80BC0292008FF007F08F000240841
:100398000A168A11C8230A128A11710883120313D4
:1003A800B9007008B8003808A8003908A900AA01DF
:1003B800AB012808AE07290803110318013E0319E9
:1003C800E629AF072A0803110318013E0319ED298E
:1003D800B0072B0803110318013E0319F429B107CC
:1003E8002108FF007F08F00026080A168A11C82392
:1003F8000A128A11710883120313B9007008B80031
:100408003808A8003908A900AA01AB012808B407D0
:10041800290803110318013E0319132AB5072A08EE
:1004280003110318013E03191A2AB6072B080311F2
:100438000318013E0319212AB7072208FF007F0885
:10044800F00025080A168A11C8230A128A117108B1
:1004580083120313B9007008B8003808A8003908D7
:10046800A900AA01AB012808B40729080311031839
:10047800013E0319402AB5072A0803110318013E53
:100488000319472AB6072B0803110318013E03195D
:100498004E2AB7072208FF007F08F00026080A1630
:1004A8008A11C8230A128A11710883120313B9002A
:1004B8007008B8003808A8003908A900AA01AB01DB
:1004C80008300310A80DA90DAA0DAB0DFF3E031DA2
:1004D800652A2808B407290803110318013E0319DF
:1004E800762AB5072A0803110318013E03197D2A45
:1004F800B6072B0803110318013E0319842AB7070E
:100508002E08A8002F08A9003008AA003108AB005F
:1005180018300310AB0CAA0CA90CA80CFF3E031D45
:100528008D2A2808B407290803110318013E031966
:100538009E2AB5072A0803110318013E0319A52AA4
:10054800B6072B0803110318013E0319AC2AB70795
:100558000830A8000310AE0DAF0DB00DB10DA80BFB
:10056800AE2A33083207A800A901A90D2808823E3F
:10057800B80029080318013EFF3EB900E02A0130FF
:10058800A8000310B40DB50DB60DB70DA80BC52AFC
:10059800B11FCF2AD02AD12A34140130A800031061
:1005A800AE0DAF0DB00DB10DA80BD32AFF30B807B3
:1005B8000318B90AFF30B907B61FE32AE42AC32A89
:1005C800B201B11FE82AE92A052BFF302E05A80041
:1005D800FF302F05A900FF303005AA007F30310514
:1005E800AB002B082A04290428040319FC2AFD2A35
:1005F800002BB201B20A052B341C032B042B052B4C
:10060800FD2A32080319092B0A2B3B2B0130B407AA
:10061800003003180130B507003003180130B60761
:10062800003003180130B707371C1B2B1C2B3B2B42
:100638003408A8003508A9003608AA003708AB0016
:100648000130AC002B0DAB0CAA0CA90CA80CAC0B00
:10065800262B2B08B7002A08B6002908B500280859
:10066800B4000130B8070318B90A0030B9073908CF
:10067800803AFF0080307F02031D442BFF30380290
:10068800031C472B482B532B7F3083120313B700CF
:100698008030B6000030B5000030B400882B8312DB
:1006A80003133908803AFF0080307F02031D5E2B58
:1006B800013038020318612B622B6E2B0030831235
:1006C8000313B7000030B6000030B5000030B400A6
:1006D800AD01882B831203133808FF007F08B3008D
:1006E800FF30B405FF30B5057F30B6050030B705DB
:1006F800331C7F2B802B812BB6173308A8000310DF
:10070800280CFF007F08B7002D08FF007F08B704FA
:100718003708A3003608A2003508A1003408A00055
:100728000800013083120313DC070030031801307E
:10073800DD07003003180130DE07003003180130F0
:10074800DF070030F3000030F2000030F100C8305D
:10075800F0005F08F7005E08F6005D08F5005C0829
:10076800F4000A168A1102260A128A117308720402
:1007780071047004031DC12BC22BCD2B83120313EC
:100788006003031DC82BC92BCD2B0830FF007F0841
:1007980086060030F3000030F2000030F1000A3025
:1007A800F000831203135F08F7005E08F6005D0887
:1007B800F5005C08F4000A168A1102260A128A114A
:1007C8007308720471047004031DEB2BEC2BF12BDE
:1007D8000A128A11FD250A128A110030F30000302E
:1007E800F2000030F1001430F000831203135F08A8
:1007F800F7005E08F6005D08F5005C08F4000A16CC
:100808008A1102260A128A1173087204710470048C
:10081800031D0F2C102CE82D0A168A11BD250A126B
:100828008A1183120313D601D701831203135608C2
:10083800A13E840083130008FF005608A03E8400F0
:100848007F0880000130D6070318D70A0030D70781
:100858005708803AFF0080307F02031D352C0A308C
:100868005602031C382C392C192C831203136108E7
:10087800FF007F0883160313A9000A30F000003038
:10088800F1002008210783120313C600C701C70D12
:10089800831603132208831203134607C800003087
:1008A800031801304707C90083160313230883126E
:1008B80003134807CA000030031801304907CB006A
:1008C800831603132408831203134A07CC0000304D
:1008D800031801304B07CD00831603132508831234
:1008E80003134C07CE000030031801304D07CF002A
:1008F800831603132608831203134E07D000003013
:10090800031801304F07D1008316031327088312F9
:1009180003135007D2000030031801305107D300E9
:10092800831603132808831203135207D4000030D8
:10093800031801305307D5008316031329088312BF
:1009480003135407F2000030031801305507F30071
:100958000A168A11AF260A128A117008FF007F084A
:1009680083160313AF00E82D0030F3000030F200C7
:100978000030F1000A30F0005F08F7005E08F6006A
:100988005D08F5005C08F4000A168A1102260A12AE
:100998008A1105307006710472047304031DD52C86
:1009A800D62CF22C0A30F0000030F1008312031329
:1009B8006108C600C7014608F2004708F3000A1696
:1009C8008A11AF260A128A117008FF007F08F80002
:1009D80000300A128A1542250A128A110030F300E3
:1009E8000030F2000030F1000A30F00083120313E7
:1009F8005F08F7005E08F6005D08F5005C08F40083
:100A08000A168A1102260A128A11730872047104DE
:100A18007004031D102D112DFC2D0A30F00000303C
:100A2800F100831203136108C600C7014608F200EB
:100A38004708F3000A168A1156260A128A11700806
:100A4800FF007F08F80001300A128A1542250A12B1
:100A58008A11FC2D013083160313AA0700300318EE
:100A68000130AB07003003180130AC070030031821
:100A78000130AD070030F3000030F2000030F10023
:100A8800C830F000831203135F08F7005E08F60011
:100A98005D08F5005C08F4000A168A1102260A129D
:100AA8008A117308031D652D7208031D652D7108D1
:100AB800031D652D64307002031D622D0318652D1A
:100AC800662DE22D0030F3000030F2000030F10016
:100AD8000A30F000831203135F08F7005E08F6007F
:100AE8005D08F5005C08F4000A168A1102260A124D
:100AF8008A1105307006710472047304031D852D74
:100B0800862DA42D0A30F0000030F100831603135F
:100B1800300883120313C600C7014608F2004708CD
:100B2800F3000A168A11AF260A128A117008FF000C
:100B38007F08F80000300A128A1542250A128A1125
:100B48000030F3000030F2000030F1000A30F0000D
:100B5800831203135F08F7005E08F6005D08F500CE
:100B68005C08F4000A168A1102260A128A11730810
:100B7800720471047004031DC22DC32DFC2D0A30AC
:100B8800F0000030F10083160313300883120313BA
:100B9800C600C7014608F2004708F3000A168A1182
:100BA80056260A128A117008FF007F08F8000130E3
:100BB8000A128A1542250A128A11FC2D0A168A1170
:100BC800E2220A128A11FC2D831603132E088312BF
:100BD8000313C600C7014708003A0319F42DFC2D7A
:100BE8004608013A0319B82C033A03192E2DFC2D97
:100BF80008005F2E0A300A128A116A270A128A111F
:100C0800003A031D082E092ED82E83120313E5017E
:100C1800E50AD82E0A300A128A116A270A128A119E
:100C2800003A031D182E192E1F2E0130FF007F08D1
:100C380083120313E2070430831203136202031CB6
:100C4800262E272ED82EE2010230FF007F08E5006D
:100C5800D82E83160313B301B30A0A300A128A1175
:100C68006A270A128A11013A031D3B2E3C2ED82E00
:100C78000330FF007F0883120313E500D82E0A30E3
:100C88000A128A116A270A128A11013A031D4D2E87
:100C98004E2E542E0130FF007F0883120313E20703
:100CA8000430831203136202031C5B2E5C2ED82EC1
:100CB800E201E501D82E831203136508F300F4015D
:100CC8007408003A0319692ED82E7308003A0319DC
:100CD800FE2D013A03190E2E033A03192D2E013A5F
:100CE8000319432ED82E08300A128A116A270A12CD
:100CF8008A11003A031D812E822E512F831203136D
:100D0800E401E40A512F08300A128A116A270A12EC
:100D18008A11003A031D912E922E982E0130FF0061
:100D28007F0883120313E20704308312031362025D
:100D3800031C9F2EA02E512FE2010230FF007F08D6
:100D4800E400512F83160313B201B20A08300A12C5
:100D58008A116A270A128A11013A031DB42EB52E88
:100D6800512F0330FF007F0883120313E400512F33
:100D780008300A128A116A270A128A11013A031DD9
:100D8800C62EC72ECD2E0130FF007F088312031315
:100D9800E2070430831203136202031CD42ED52EFB
:100DA800512FE201E401512F831203136408F30069
:100DB800F4017408003A0319E22E512F7308003A1F
:100DC8000319772E013A0319872E033A0319A62E21
:100DD800013A0319BC2E512F09300A128A116A27C9
:100DE8000A128A11003A031DFA2EFB2E692F83126C
:100DF8000313E301E30A692F09300A128A116A27EB
:100E08000A128A11003A031D0A2F0B2F112F0130E5
:100E1800FF007F0883120313E207043083120313D1
:100E28006202031C182F192F692FE2010230FF00FC
:100E38007F08E300692F83160313B101B10A093053
:100E48000A128A116A270A128A11013A031D2D2FE4
:100E58002E2F692F0330FF007F0883120313E3004E
:100E6800692F09300A128A116A270A128A11013A6F
:100E7800031D3F2F402F462F0130FF007F088312AC
:100E88000313E2070430831203136202031C4D2F7D
:100E98004E2F692FE201E301692F831203136308C0
:100EA800F300F4017408003A03195B2F692F7308E3
:100EB800003A0319F02E013A0319002F033A0319D7
:100EC8001F2F013A0319352F692F0800F200083047
:100ED80072020318702F712F832F831203130508D2
:100EE800F00072080739013E7B2F0310F00CFF3E1B
:100EF800031D792F70080139FF007F08F1000830C1
:100F08007202031C882F892FA12F10307202031838
:100F18008E2F8F2FA12F831203130608F00072085B
:100F28000739013E992F0310F00CFF3E031D972F40
:100F380070080139FF007F08F10010307202031CAD
:100F4800A62FA72FBF2F183072020318AC2FAD2F72
:100F5800BF2F831203130708F00072080739013EF8
:100F6800B72F0310F00CFF3E031DB52F7008013991
:100F7800FF007F08F10018307202031CC42FC52F30
:100F8800DD2F203072020318CA2FCB2FDD2F8312DA
:100F980003130808F00072080739013ED52F031023
:100FA800F00CFF3E031DD32F70080139FF007F08A6
:100FB800F10020307202031CE22FE32FFB2F2330B5
:100FC80072020318E82FE92FFB2F83120313090875
:100FD800F00072080739013EF32F0310F00CFF3EB2
:100FE800031DF12F70080139FF007F08F100710817
:020FF8000800EF
:101006006E28FE30FF007F08831603138105FD302E
:10101600FF007F088105FB30FF007F088105F73060
:10102600FF007F0881059228831603130114FD3003
:10103600FF007F088105FB30FF007F088105F73040
:10104600FF007F0881059228FE30FF007F08831687
:10105600031381058114FB30FF007F088105F730FB
:10106600FF007F088105922883160313011481145B
:10107600FB30FF007F088105F730FF007F08810500
:101086009228FE30FF007F08831603138105FD308A
:10109600FF007F0881050115F730FF007F088105F5
:1010A6009228831603130114FD30FF007F08810583
:1010B6004E28FE30FF007F08831603138105811436
:1010C6004E2883160313011481140115F730FF000F
:1010D6007F08810592280130003A03197628013AE3
:1010E60003198D2892280030023A03190428063A7B
:1010F600031917280C3A03192728183A0319372811
:10110600303A03194428603A03195428C03A03199F
:101116005C2892280030003A031964289228DF30B0
:10112600FF007F08831603138105EF30FF007F0859
:1011360081050800F80078080319A228A328B72813
:10114600F31FA628A728B7287009FA007109FB0023
:101156007209FC007309FD00FA0A0319FB0A031958
:10116600FC0A0319FD0ABF287308FD007208FC007B
:101176007108FB007008FA007308720471047004A9
:10118600031DC628C728D0280030F3000030F2001F
:101196000030F1000030F00056299630FF007F083D
:1011A600F900E2280130FF007F08F907013003103B
:1011B600FD0CFC0CFB0CFA0CFF3E031DDA28FE307E
:1011C6007D05031DE728E828D52804290130FF00FE
:1011D6007F08F9070130FA07003003180130FB07D2
:1011E600003003180130FC07003003180130FD07FA
:1011F60001300310FD0CFC0CFB0CFA0CFF3E031D2A
:10120600FC28FF307D05031D09290A29E92816292E
:101216000130F9020130F4000310FA0DFB0DFC0D4C
:10122600FD0DF40B0F29FC1B19291A292029023060
:10123600790203181F2920290B2979182329242923
:101246002C29FF30FA05FF30FB057F30FC05FF3007
:10125600FD050310F90C7908F400F501F601F70114
:1012660018300310F40DF50DF60DF70DFF3E031DB6
:1012760034297408FA047508FB047608FC04770818
:10128600FD0478080319482949294E29F31F4C29DA
:101296004D294E29FD177D08F3007C08F2007B08D6
:1012A600F1007A08F0000800F30008307302031812
:1012B6005D295E297D297008F10073080739013E12
:1012C60066290310F10DFF3E031D64290130F2006B
:1012D60073080739013E71290310F20DFF3E031D05
:1012E6006F297208FF3A8312031305057104FF0084
:1012F6007F08850008307302031C82298329A829E8
:1013060010307302031888298929A8297008F1006A
:1013160073080739013E91290310F10DFF3E031DA5
:101326008F290130F20073080739013E9C2903100A
:10133600F20DFF3E031D9A297208FF3A831203132A
:1013460006057104FF007F08860010307302031C37
:10135600AD29AE29D329183073020318B329B4294D
:10136600D3297008F10073080739013EBC29031020
:10137600F10DFF3E031DBA290130F200730807394B
:10138600013EC7290310F20DFF3E031DC529720851
:10139600FF3A8312031307057104FF007F088700D5
:1013A60018307302031CD829D929FE29203073026C
:1013B6000318DE29DF29FE297008F10073080739B2
:1013C600013EE7290310F10DFF3E031DE52901301B
:1013D600F20073080739013EF2290310F20DFF3EB1
:1013E600031DF0297208FF3A8312031308057104DE
:1013F600FF007F08880020307302031C032A042A9A
:10140600292A233073020318092A0A2A292A70086E
:10141600F10073080739013E122A0310F10DFF3E51
:10142600031D102A0130F20073080739013E1D2AF8
:101436000310F20DFF3E031D1B2A7208FF3A8312AA
:10144600031309057104FF007F088900080083164D
:101456000313B700083037020318322A332A562AF4
:101466003408B50037080739013E3B2A0310B50D8D
:10147600FF3E031D392A0130B60037080739013E01
:10148600462A0310B60DFF3E031D442A3608FF3ACE
:10149600831203130505831603133504FF007F0823
:1014A6008312031385000830831603133702031CC7
:1014B6005D2A5E2A872A103037020318632A642AB7
:1014C600872A3408B50037080739013E6C2A03100D
:1014D600B50DFF3E031D6A2A0130B60037080739ED
:1014E600013E772A0310B60DFF3E031D752A360806
:1014F600FF3A831203130605831603133504FF0010
:101506007F088312031386001030831603133702F5
:10151600031C8E2A8F2AB82A183037020318942AF9
:10152600952AB82A3408B50037080739013E9D2A9E
:101536000310B50DFF3E031D9B2A0130B600370888
:101546000739013EA82A0310B60DFF3E031DA62A41
:101556003608FF3A8312031307058316031335046F
:10156600FF007F08831203138700183083160313C6
:101576003702031CBF2AC02AE92A20303702031883
:10158600C52AC62AE92A3408B50037080739013EB4
:10159600CE2A0310B50DFF3E031DCC2A0130B6003E
:1015A60037080739013ED92A0310B60DFF3E031D41
:1015B600D72A3608FF3A8312031308058316031346
:1015C6003504FF007F08831203138800203083163A
:1015D60003133702031CF02AF12A1A2B2330370291
:1015E6000318F62AF72A1A2B3408B50037080739E4
:1015F600013EFF2A0310B50DFF3E031DFD2A0130F3
:10160600B60037080739013E0A2B0310B60DFF3E18
:10161600031D082B3608FF3A8312031309058316A8
:1016260003133504FF007F088312031389000800A3
:10163600F400831603130508FF007F08F700090866
:10164600FF007F08F800FF30FF007F088500FF30AD
:10165600FF007F088900831203139E01831603137C
:101666009E01D12B831203131F08F739FF007F0851
:101676009F001F08EF39FF007F089F001F08DF3912
:10168600FF007F089F00F32B831203131F08F7390F
:101696000838FF007F089F001F08EF39FF007F080A
:1016A6009F001F08DF39FF007F089F00F32B83127E
:1016B60003131F08F739FF007F089F001F08EF3943
:1016C6001038FF007F089F001F08DF39FF007F08E2
:1016D6009F00F32B831203131F08F7390838FF0006
:1016E6007F089F001F08EF391038FF007F089F0012
:1016F6001F08DF39FF007F089F00F32B83120313B7
:101706001F08F739FF007F089F001F08EF39FF0009
:101716007F089F001F08DF392038FF007F089F00E1
:10172600F32B831203131F08F7390838FF007F08CD
:101736009F001F08EF39FF007F089F001F08DF3951
:101746002038FF007F089F00F32B831203131F0826
:10175600F739FF007F089F001F08EF391038FF0098
:101766007F089F001F08DF392038FF007F089F0091
:10177600F32B831203131F08F7390838FF007F087D
:101786009F001F08EF391038FF007F089F001F08D1
:10179600DF392038FF007F089F00F32B7408F20022
:1017A600F3017308003A0319D92BF32B7208003A98
:1017B6000319352B013A0319472B033A03195A2B00
:1017C600013A03196D2B073A0319812B013A0319C4
:1017D600942B033A0319A82B013A0319BC2BF32BBC
:1017E60083121F141F151F08F20002300310F20C9B
:1017F600FF3E031DF92B7218012C022CF62B1E0836
:10180600F200F3017208F300F201831603131E08B7
:101816007207F50073080318730AF6007708FF00CD
:101826007F0885007808FF007F088900FE30FF00EA
:101836007F08831203139F057608F1007508F000F0
:10184600080083160313B700312D0830370203183A
:101856002D2C2E2C3D2C0130B50037080739013EC2
:10186600362C0310B50DFF3E031D342C3508FF0042
:101876007F08850408303702031C422C432C582C61
:10188600103037020318482C492C582C0130B5006B
:1018960037080739013E512C0310B50DFF3E031DD5
:1018A6004F2C3508FF007F08860410303702031CD2
:1018B6005D2C5E2C732C183037020318632C642CB5
:1018C600732C0130B50037080739013E6C2C031024
:1018D600B50DFF3E031D6A2C3508FF007F088704FF
:1018E60018303702031C782C792C8E2C20303702C6
:1018F60003187E2C7F2C8E2C0130B5003708073953
:10190600013E872C0310B50DFF3E031D852C3508BF
:10191600FF007F08880420303702031C932C942C88
:10192600412D233037020318992C9A2C412D013072
:10193600B50037080739013EA22C0310B50DFF3E4E
:10194600031DA02C3508FF007F088904412D0830AF
:1019560037020318AF2CB02CC02C0130B500370865
:101966000739013EB82C0310B50DFF3E031DB62CFA
:101976003508FF3AFF007F08850508303702031C4B
:10198600C52CC62CDC2C103037020318CB2CCC2CE3
:10199600DC2C0130B50037080739013ED42C031082
:1019A600B50DFF3E031DD22C3508FF3AFF007F0818
:1019B600860510303702031CE12CE22CF82C183077
:1019C60037020318E72CE82CF82C0130B50037084D
:1019D6000739013EF02C0310B50DFF3E031DEE2C1A
:1019E6003508FF3AFF007F08870518303702031CC9
:1019F600FD2CFE2C142D203037020318032D042D48
:101A0600142D0130B50037080739013E0C2D03109F
:101A1600B50DFF3E031D0A2D3508FF3AFF007F086E
:101A2600880520303702031C192D1A2D412D23302D
:101A3600370203181F2D202D412D0130B500370820
:101A46000739013E282D0310B50DFF3E031D262D37
:101A56003508FF3AFF007F088905412D3408B50097
:101A6600B6013608003A0319392D412D3508003ADA
:101A76000319AA2C013A0319282C412D0800FB0052
:101A8600902EF001F00A04300A128A1557210A1224
:101A96008A15F00105300A128A1557210A128A158D
:101AA600C22D3F30FF007F08F00003300A168A116E
:101AB600B6240A128A15A02E0630FF007F08F00011
:101AC60003300A168A11B6240A128A15A02E5B3034
:101AD600FF007F08F00003300A168A11B6240A12A6
:101AE6008A15A02E4F30FF007F08F00003300A163B
:101AF6008A11B6240A128A15A02E6630FF007F08C6
:101B0600F00003300A168A11B6240A128A15A02E8E
:101B16006D30FF007F08F00003300A168A11B624E4
:101B26000A128A15A02E7D30FF007F08F0000330D0
:101B36000A168A11B6240A128A15A02E0730FF004B
:101B46007F08F00003300A168A11B6240A128A1595
:101B5600A02E7F30FF007F08F00003300A168A119E
:101B6600B6240A128A15A02E6F30FF007F08F000F7
:101B760003300A168A11B6240A128A15A02E78088E
:101B8600F900FA017A08003A0319CA2DA02E79083D
:101B9600003A0319542D013A03195F2D033A03192C
:101BA6006A2D013A0319752D073A0319802D013A5A
:101BB60003198B2D033A0319962D013A0319A12D0A
:101BC6000F3A0319AC2D013A0319B72DA02EF001D7
:101BD600F00A05300A128A1557210A128A15F001F1
:101BE60004300A128A1557210A128A15682E3F30C8
:101BF600FF007F08F00003300A168A11B6240A1285
:101C06008A15A02E0630FF007F08F00003300A1662
:101C16008A11B6240A128A15A02E5B30FF007F08AF
:101C2600F00003300A168A11B6240A128A15A02E6D
:101C36004F30FF007F08F00003300A168A11B624E1
:101C46000A128A15A02E6630FF007F08F0000330C6
:101C56000A168A11B6240A128A15A02E6D30FF00C4
:101C66007F08F00003300A168A11B6240A128A1574
:101C7600A02E7D30FF007F08F00003300A168A117F
:101C8600B6240A128A15A02E0730FF007F08F0003E
:101C960003300A168A11B6240A128A15A02E7F303E
:101CA600FF007F08F00003300A168A11B6240A12D4
:101CB6008A15A02E6F30FF007F08F00003300A1649
:101CC6008A11B6240A128A15A02E7808F900FA019C
:101CD6007A08003A0319702EA02E7908003A0319E3
:101CE600FA2D013A0319052E033A0319102E013A6B
:101CF60003191B2E073A0319262E013A0319312E12
:101D0600033A03193C2E013A0319472E0F3A0319D9
:101D1600522E013A03195D2EA02E7B08F900FA0116
:101D26007A08003A0319982EA02E7908003A03196A
:101D3600442D013A0319EA2DA02E0800EA2FB80116
:101D460015300A168A11B4220A128A15831603134D
:101D5600B8010B300A168A11B4220A128A158316A4
:101D66000313B80112300A168A11B4220A128A1510
:101D76000A168A112F230A128A15831603133103B2
:101D8600031DC62EC72EEA2FB101AE01AE0AEA2FF9
:101D960000300A168A1179250A128A15FF007F0873
:101DA60083160313BE003103031DDA2EDB2EE02E4D
:101DB600B101AE0183120313E0018316031332034C
:101DC6000319E62EE72EEC2E3303031DEB2EEC2E25
:101DD600FD2EB201B3010230FF007F08AE000030D5
:101DE600AD000030AC000030AB000030AA0083121A
:101DF6000313E001831603133E08053EBB000030C3
:101E060003180130BC003C08803ABD0080303D021A
:101E1600031D0F2F2F083B020318122F132F332FEA
:101E260083160313B80115300A168A11B4220A1252
:101E36008A1583160313B801B80A12300A168A11D6
:101E4600B4220A128A1583160313B801B80A0B3096
:101E56000A168A11B4220A128A1583120313E001A4
:101E6600831603133E08FB3EBB00FF300318003009
:101E7600BC003C08803A803C031D432F3B082F02E0
:101E86000318462F472FEA2F83160313B801B80A03
:101E960015300A168A11B4220A128A1583160313FC
:101EA600B80112300A168A11B4220A128A15831250
:101EB6000313E001E00AEA2FB80115300A168A1169
:101EC600B4220A128A1583160313B8010B300A16B8
:101ED6008A11B4220A128A1583160313B801123026
:101EE6000A168A11B4220A128A15831603133103BD
:101EF600031D7E2F7F2F812FB101AE013203031DFB
:101F0600852F862FA72F0530B00223303002031805
:101F16008D2F8E2F922F2330FF007F08B000B20145
:101F26003008FF007F08B70000300A168A11EF2339
:101F36000A128A15003083160313AD000030AC0078
:101F46000030AB000030AA003303031DAB2FAC2FCB
:101F5600CF2F0530FF007F08B0074C303002031C3E
:101F6600B52FB62FBA2F4B30FF007F08B000B30154
:101F76003008FF007F08B70000300A168A11EF23E9
:101F86000A128A15003083160313AD000030AC0028
:101F96000030AB000030AA002D08031DE12F2C08ED
:101FA600031DE12F03302B02031DDD2FE9302A022A
:101FB600031DDD2F031CE02FE12FEA2F0030AD00BB
:101FC6000030AC000030AB000030AA00C82E8316EB
:101FD60003132E08BB00BC013C08003A0319F42F7A
:101FE600EA2F3B08003A0319A22E013A0319CB2E19
:0A1FF600033A03195F2FEA2F0800D9
:1024F60064008001840A04060319003404067C2A59
:102506000A168A1136250A168A11831603139114A0
:1025160008000A168A1136250A168A11831603132D
:10252600111408000A168A1136250A168A1183160E
:1025360003131115080083160313B4003408FF00B3
:102546007F0883120313E60008008316031391160F
:102556000A168A1136250A168A11831603131116CE
:10256600080083160313B9003808FF007F08B4007B
:1025760039080A128A152A220A168A1108008B16A9
:102586008B170B17FB30FF007F088B05DA30FF0037
:102596007F0883120313810008003C30FF007F0888
:1025A60083160313B000AE013008FF007F08B700A2
:1025B60000300A168A11EF230A168A110800F00164
:1025C60004300A128A1557210A168A11F0010530BD
:1025D6000A128A1557210A168A11F00103300A16C3
:1025E6008A11B6240A168A110800FB30FF007F08FC
:1025F6008B05DA30FF007F08810066080A128A110F
:102606002B200A168A11831203135B08FF005A084F
:102616008A0059088400580E8300FE0E7E0E0900BB
:1026260083160313B40103300A168A1116270A16F5
:102636008A1183160313B40104300A128A1524245E
:102646000A168A1183160313B40105300A128A1575
:1026560024240A168A11080083160313B4010430D1
:102666000A128A152A220A168A1183160313B4013E
:1026760005300A128A152A220A168A1183160313AE
:10268600B40103300A168A11F5240A168A110800C5
:1026960083160313871507169417831203139416CC
:1026A6009415FB30FF007F089405FD30FF007F087E
:1026B6009405FE30FF007F089405831603139101ED
:1026C6001330FF007F0893000800831203139E0156
:1026D600831603139E01831203131F179F17831676
:1026E60003131F17F730FF007F089F05FB30FF001D
:1026F6007F089F05FD30FF007F089F05FE30FF0025
:102706007F089F059F17080083160313B401B40AB8
:102716000A300A128A1524240A168A11831603130C
:10272600B401B40A08300A128A1524240A168A113A
:1027360083160313B401B40A09300A128A15242435
:102746000A168A11080083160313B4010B300A1205
:102756008A1524240A168A1183160313B401153028
:102766000A128A1524240A168A1183160313B40141
:1027760012300A128A1524240A168A110F30FF0015
:102786007F088316031386050800F800F401F50197
:102796007008F200F3017208F6007308F700781C5F
:1027A600D52BD62BDC2B7608F4070318F50A770809
:1027B600F50701300310F60DF70DFF3E031DDD2B67
:1027C6000310F80C7808031DE92BEA2BD22B7508A9
:1027D600F1007408F000080083160313B8000A1607
:1027E6008A118C220A168A11FD2B0A168A11832257
:1027F6000A168A11A0300A168A114E240A168A1160
:10280600003A031D072C082CF82B831603133808EF
:102816000A168A114E240A168A11831603133708DC
:102826000A168A114E240A168A110A168A11952248
:102836000A168A1108000A168A1136250A168A11FE
:10284600831603139115831203130C0883160313BF
:10285600B50003300310B50CFF3E031D2D2C351CAF
:10286600352C362C262CF730FF007F0883120313F5
:102876008C050A168A1136250A168A118312031345
:10288600130883160313B500B6013508B7003608DA
:10289600B8003708080083160313B6000A168A1113
:1028A60036250A168A11831603133608FF007F0899
:1028B60083120313930083120C0883160313B500C7
:1028C60003300310B50CFF3E031D642C351C6C2C25
:1028D6006D2C5E2CF730FF007F08831203138C05E6
:1028E600831603131108B50006300310B50CFF3E1E
:1028F600031D782C3508013908000A128A150320B1
:102906000A168A110A168A11C2220A168A110A168C
:102916008A1113230A168A110A168A1168230A16BF
:102926008A110A168A1187230A168A110A168A112B
:10293600A6230A168A110A168A114B230A168A1129
:102946000A168A11D0220A168A1101300A168A112D
:102956009E220A168A110A128A15A1260A168A11B9
:102966000A128A111228F300DB2C7008FF007F0878
:10297600831203138500F42C7008FF007F0883126E
:1029860003138600F42C7008FF007F0883120313DC
:102996008700F42C7008FF007F0883120313880059
:1029A600F42C7008FF007F08831203138900F42CAF
:1029B6007308F100F2017208003A0319E32CF42CB3
:1029C6007108003A0319B82C013A0319BF2C033ACF
:1029D6000319C62C013A0319CD2C073A0319D42C36
:1029E600F42C080083160313B7001C2D3408FF00CF
:1029F6007F08831203138500352D3408FF007F08F6
:102A0600831203138600352D3408FF007F088312D6
:102A160003138700352D3408FF007F088312031344
:102A26008800352D3408FF007F08831203138900C0
:102A3600352D3708B500B6013608003A0319242D9E
:102A4600352D3508003A0319F92C013A0319002DE2
:102A5600033A0319072D013A03190E2D073A0319F4
:102A6600152D352D0800831603131408B400023003
:102A76000310B40CFF3E031D3B2D3418432D442D8B
:102A8600362D1118472D482D362D1108B40001306A
:102A96000310B40CFF3E031D4B2D3418532D542D3B
:102AA600362D1108B40002300310B40CFF3E031D8E
:102AB600572D34185F2D602D362D1108B4000330C4
:102AC6000310B40CFF3E031D632D34186B2D6C2DC3
:102AD600362D1108B40004300310B40CFF3E031D5C
:102AE6006F2D3418772D782D362D08008316031395
:102AF600B9000A168A118C220A168A11872D0A161F
:102B06008A1183220A168A11A0300A168A114E24C7
:102B16000A168A11003A031D912D922D822D8316D5
:102B2600031339080A168A114E240A168A110A1640
:102B36008A118C220A168A11A1300A168A114E248D
:102B46000A168A110A168A111E240A168A11FF000D
:102B56007F0883160313BA000A168A11A8220A16DA
:102B66008A110A168A1195220A168A1183160313E8
:102B76003A08080002300A128A151B230A168A111F
:102B8600710883120313C5007008C4004408F000DE
:102B96004508F100F201F30100300A128A159D2062
:102BA6000A168A11730883120313A7007208A60077
:102BB6007108A5007008A4003E30A300FA30A200F8
:102BC6000030A1000030A0000A128A1134200A1633
:102BD6008A11831203132308BD002208BC002108B2
:102BE600BB002008BA000A168A1184270A168A1121
:102BF600831203133A08FF007F08E10008007308F8
:102C06007204710470040319092E0A2E4D2EF9015F
:102C1600F90A1A2E0130F8000310F00DF10DF20D2D
:102C2600F30DF80B0F2E0130FF007F08F907F31F95
:102C36001D2E1E2E0D2E73087702031D2C2E7208D4
:102C46007602031D2C2E71087502031D2C2E7008AA
:102C56007402031C2F2E302E3E2E7008F4027108CB
:102C6600031C710FF5027208031C720FF60273083B
:102C7600031C730FF70201300310F30CF20CF10C76
:102C8600F00CFF3E031D3F2E0130F902031D4C2EB2
:102C96004D2E1E2E7708F3007608F2007508F10017
:102CA6007408F0000800F501F31F5A2E5B2E622E01
:102CB600F209F309F20A0319F30AF501F50AF11FFD
:102CC600652E662E6B2EF009F109F00A0319F10A3A
:102CD600700871040319702E712EA02EF401F40AE7
:102CE6007F2E01300310F00DF10DFF3E031D752EF2
:102CF6000130FF007F08F407F11F822E832E742E09
:102D060071087302031D892E70087202031C8C2E33
:102D16008D2E932E7008F2027108031CF303F30242
:102D260001300310F10CF00CFF3E031D942E013010
:102D3600F402031D9F2EA02E832E75080319A42EC0
:102D4600A52EAA2EF209F309F20A0319F30A73084B
:102D5600F1007208F0000800F501F11FB32EB42E41
:102D6600BB2EF009F109F00A0319F10AF501F50A7B
:102D7600F31FBE2EBF2EC82EF209F309F20A03195D
:102D8600F30A0130FF007F08F506F601F701700827
:102D960071040319CF2ED02E072FF401F40ADE2E6C
:102DA60001300310F00DF10DFF3E031DD42E01304E
:102DB600FF007F08F407F11FE12EE22ED32E01302B
:102DC6000310F60DF70DFF3E031DE32E7108730287
:102DD600031DEF2E70087202031CF22EF32EFA2E3C
:102DE6007008F2027108031CF303F3027614013033
:102DF6000310F10CF00CFF3E031DFB2E0130F40214
:102E0600031D062F072FE22E750803190B2F0C2F13
:102E1600112FF609F709F60A0319F70A7708F100E0
:102E26007608F000080083160313B7006A2F3403F0
:102E3600031D1E2F1F2F232FFF30FF007F08850045
:102E46003408031D272F282F832F8501832F340352
:102E5600031D2E2F2F2F332FFF30FF007F088600F4
:102E66003408031D372F382F832F8601832F340311
:102E7600031D3E2F3F2F432FFF30FF007F088700A3
:102E86003408031D472F482F832F8701832F3403D0
:102E9600031D4E2F4F2F532FFF30FF007F08880052
:102EA6003408031D572F582F832F8801832F34038F
:102EB600031D5E2F5F2F632FFF30FF007F08890001
:102EC6003408031D672F682F832F8901832F370846
:102ED600B500B6013608003A0319722F832F35085C
:102EE600003A03191A2F013A03192A2F033A031934
:102EF6003A2F013A03194A2F073A03195A2F832FFB
:102F060008000310831203133C0D3D0DFF007F08DC
:102F1600C3004308031D902F912F9A2F0030BD0048
:102F26000030BC000030BB000030BA00FF2F3A086A
:102F3600BE003B08BF003C08C0003D08C1001F3072
:102F46000310C10CC00CBF0CBE0CFF3E031DA32F0B
:102F56003E08FF007F08C200BC17FF30BA05FF30ED
:102F6600BB05FF30BC050030BD059630C302C31F4C
:102F7600BD2FBE2FD82F4308803A973E0318C42F83
:102F8600C52FC62F912F01300310BD0CBC0CBB0CF6
:102F9600BA0CFF3E031DC72F0130FF007F08C30791
:102FA600031DD62FD72FC62FEF2F20304302031C29
:102FB600DD2FDE2FEA2F912F0130BE000310BA0D50
:102FC600BB0DBC0DBD0DBE0BE12F0130C302430886
:102FD600031DEE2FEF2FDF2F42080319F32FF42FD7
:102FE600FF2FBA09BB09BC09BD09BA0A0319BB0AF6
:0A2FF6000319BC0A0319BD0A080004
:02400E00393F38
:00000001FF
